{
  "contractName": "EmployeeManagementSystem",
  "abi": [
    {
      "inputs": [],
      "stateMutability": "nonpayable",
      "type": "constructor"
    },
    {
      "anonymous": false,
      "inputs": [
        {
          "indexed": true,
          "internalType": "address",
          "name": "employeeAddress",
          "type": "address"
        },
        {
          "indexed": false,
          "internalType": "string",
          "name": "name",
          "type": "string"
        },
        {
          "indexed": false,
          "internalType": "uint256",
          "name": "age",
          "type": "uint256"
        },
        {
          "indexed": false,
          "internalType": "uint256",
          "name": "employeeNumber",
          "type": "uint256"
        },
        {
          "indexed": false,
          "internalType": "uint256",
          "name": "dateOfJoining",
          "type": "uint256"
        }
      ],
      "name": "EmployeeAdded",
      "type": "event"
    },
    {
      "anonymous": false,
      "inputs": [
        {
          "indexed": true,
          "internalType": "address",
          "name": "employeeAddress",
          "type": "address"
        },
        {
          "indexed": false,
          "internalType": "uint256",
          "name": "date",
          "type": "uint256"
        },
        {
          "indexed": false,
          "internalType": "enum EmployeeManagementSystem.Attendance",
          "name": "status",
          "type": "uint8"
        }
      ],
      "name": "EmployeeAttendanceUpdated",
      "type": "event"
    },
    {
      "inputs": [
        {
          "internalType": "uint256",
          "name": "",
          "type": "uint256"
        },
        {
          "internalType": "enum EmployeeManagementSystem.Attendance",
          "name": "",
          "type": "uint8"
        }
      ],
      "name": "dailyAttendance",
      "outputs": [
        {
          "internalType": "uint256",
          "name": "",
          "type": "uint256"
        }
      ],
      "stateMutability": "view",
      "type": "function",
      "constant": true
    },
    {
      "inputs": [
        {
          "internalType": "address",
          "name": "",
          "type": "address"
        }
      ],
      "name": "employees",
      "outputs": [
        {
          "internalType": "string",
          "name": "name",
          "type": "string"
        },
        {
          "internalType": "uint256",
          "name": "age",
          "type": "uint256"
        },
        {
          "internalType": "uint256",
          "name": "employeeNumber",
          "type": "uint256"
        },
        {
          "internalType": "uint256",
          "name": "dateOfJoining",
          "type": "uint256"
        }
      ],
      "stateMutability": "view",
      "type": "function",
      "constant": true
    },
    {
      "inputs": [],
      "name": "owner",
      "outputs": [
        {
          "internalType": "address",
          "name": "",
          "type": "address"
        }
      ],
      "stateMutability": "view",
      "type": "function",
      "constant": true
    },
    {
      "inputs": [],
      "name": "t",
      "outputs": [
        {
          "internalType": "uint256",
          "name": "",
          "type": "uint256"
        }
      ],
      "stateMutability": "view",
      "type": "function",
      "constant": true
    },
    {
      "inputs": [
        {
          "internalType": "address",
          "name": "_employeeAddress",
          "type": "address"
        },
        {
          "internalType": "string",
          "name": "_name",
          "type": "string"
        },
        {
          "internalType": "uint256",
          "name": "_age",
          "type": "uint256"
        },
        {
          "internalType": "uint256",
          "name": "_employeeNumber",
          "type": "uint256"
        },
        {
          "internalType": "uint256",
          "name": "_dateOfJoining",
          "type": "uint256"
        }
      ],
      "name": "addEmployee",
      "outputs": [],
      "stateMutability": "nonpayable",
      "type": "function"
    },
    {
      "inputs": [
        {
          "internalType": "address",
          "name": "_employeeAddress",
          "type": "address"
        },
        {
          "internalType": "uint256",
          "name": "_day",
          "type": "uint256"
        },
        {
          "internalType": "enum EmployeeManagementSystem.Attendance",
          "name": "_status",
          "type": "uint8"
        }
      ],
      "name": "updateAttendance",
      "outputs": [],
      "stateMutability": "nonpayable",
      "type": "function"
    },
    {
      "inputs": [
        {
          "internalType": "address",
          "name": "_employeeAddress",
          "type": "address"
        }
      ],
      "name": "getEmployee",
      "outputs": [
        {
          "internalType": "string",
          "name": "",
          "type": "string"
        },
        {
          "internalType": "uint256",
          "name": "",
          "type": "uint256"
        },
        {
          "internalType": "uint256",
          "name": "",
          "type": "uint256"
        },
        {
          "internalType": "uint256",
          "name": "",
          "type": "uint256"
        },
        {
          "internalType": "enum EmployeeManagementSystem.Attendance[]",
          "name": "",
          "type": "uint8[]"
        }
      ],
      "stateMutability": "view",
      "type": "function",
      "constant": true
    },
    {
      "inputs": [
        {
          "internalType": "uint256",
          "name": "_day",
          "type": "uint256"
        },
        {
          "internalType": "enum EmployeeManagementSystem.Attendance",
          "name": "_status",
          "type": "uint8"
        }
      ],
      "name": "getDailyAttendance",
      "outputs": [
        {
          "internalType": "uint256",
          "name": "",
          "type": "uint256"
        }
      ],
      "stateMutability": "view",
      "type": "function",
      "constant": true
    },
    {
      "inputs": [
        {
          "internalType": "address",
          "name": "_employeeAddress",
          "type": "address"
        },
        {
          "internalType": "uint256",
          "name": "_startDate",
          "type": "uint256"
        },
        {
          "internalType": "uint256",
          "name": "_endDate",
          "type": "uint256"
        }
      ],
      "name": "getAttendanceByDateRange",
      "outputs": [
        {
          "internalType": "enum EmployeeManagementSystem.Attendance[]",
          "name": "",
          "type": "uint8[]"
        }
      ],
      "stateMutability": "view",
      "type": "function",
      "constant": true
    }
  ],
  "bytecode": "0x60806040524260015534801561001457600080fd5b50336000806101000a81548173ffffffffffffffffffffffffffffffffffffffff021916908373ffffffffffffffffffffffffffffffffffffffff160217905550611eec806100646000396000f3fe608060405234801561001057600080fd5b50600436106100935760003560e01c806392d0d1531161006657806392d0d1531461014a57806396de335f14610168578063a3e0a19514610184578063c72aad97146101a0578063d0678947146101d057610093565b806332648e09146100985780634575f0a0146100cc578063872a4b25146100fc5780638da5cb5b1461012c575b600080fd5b6100b260048036038101906100ad9190611099565b610203565b6040516100c3959493929190611295565b60405180910390f35b6100e660048036038101906100e19190611347565b610518565b6040516100f39190611387565b60405180910390f35b610116600480360381019061011191906113a2565b6105da565b60405161012391906113f5565b60405180910390f35b61013461095a565b6040516101419190611426565b60405180910390f35b61015261097e565b60405161015f9190611387565b60405180910390f35b610182600480360381019061017d9190611576565b610984565b005b61019e6004803603810190610199919061160d565b610be9565b005b6101ba60048036038101906101b59190611347565b610f4a565b6040516101c79190611387565b60405180910390f35b6101ea60048036038101906101e59190611099565b610f6f565b6040516101fa9493929190611660565b60405180910390f35b606060008060006060600073ffffffffffffffffffffffffffffffffffffffff168673ffffffffffffffffffffffffffffffffffffffff160361027b576040517f08c379a0000000000000000000000000000000000000000000000000000000008152600401610272906116f8565b60405180910390fd5b6000600260008873ffffffffffffffffffffffffffffffffffffffff1673ffffffffffffffffffffffffffffffffffffffff1681526020019081526020016000206002015403610300576040517f08c379a00000000000000000000000000000000000000000000000000000000081526004016102f790611764565b60405180910390fd5b6000600260008873ffffffffffffffffffffffffffffffffffffffff1673ffffffffffffffffffffffffffffffffffffffff1681526020019081526020016000209050600060018260030154620151804261035b91906117e2565b6103659190611813565b61036f9190611847565b67ffffffffffffffff8111156103885761038761144b565b5b6040519080825280602002602001820160405280156103b65781602001602082028036833780820191505090505b5090506000826003015490505b62015180426103d291906117e2565b81116104625782600401600082815260200190815260200160002060009054906101000a900460ff168284600301548361040c9190611813565b8151811061041d5761041c61187b565b5b602002602001019060038111156104375761043661119b565b5b9081600381111561044b5761044a61119b565b5b81525050808061045a906118aa565b9150506103c3565b50816000018260010154836002015484600301548484805461048390611921565b80601f01602080910402602001604051908101604052809291908181526020018280546104af90611921565b80156104fc5780601f106104d1576101008083540402835291602001916104fc565b820191906000526020600020905b8154815290600101906020018083116104df57829003601f168201915b5050505050945096509650965096509650505091939590929450565b6000620151804261052991906117e2565b6305265c008461053991906117e2565b111561057a576040517f08c379a00000000000000000000000000000000000000000000000000000000081526004016105719061199e565b60405180910390fd5b600360006305265c008561058e91906117e2565b815260200190815260200160002060008360038111156105b1576105b061119b565b5b60038111156105c3576105c261119b565b5b815260200190815260200160002054905092915050565b6060600073ffffffffffffffffffffffffffffffffffffffff168473ffffffffffffffffffffffffffffffffffffffff160361064b576040517f08c379a0000000000000000000000000000000000000000000000000000000008152600401610642906116f8565b60405180910390fd5b6000600260008673ffffffffffffffffffffffffffffffffffffffff1673ffffffffffffffffffffffffffffffffffffffff16815260200190815260200160002060020154036106d0576040517f08c379a00000000000000000000000000000000000000000000000000000000081526004016106c790611764565b60405180910390fd5b81831115610713576040517f08c379a000000000000000000000000000000000000000000000000000000000815260040161070a90611a30565b60405180910390fd5b60006305265c008461072591906117e2565b905060006305265c008461073991906117e2565b9050600260008773ffffffffffffffffffffffffffffffffffffffff1673ffffffffffffffffffffffffffffffffffffffff168152602001908152602001600020600301548210156107c0576040517f08c379a00000000000000000000000000000000000000000000000000000000081526004016107b790611a9c565b60405180910390fd5b62015180426107cf91906117e2565b811115610811576040517f08c379a000000000000000000000000000000000000000000000000000000000815260040161080890611b08565b60405180910390fd5b6000600183836108219190611813565b61082b9190611847565b905060008167ffffffffffffffff8111156108495761084861144b565b5b6040519080825280602002602001820160405280156108775781602001602082028036833780820191505090505b50905060008490505b83811161094b57600260008a73ffffffffffffffffffffffffffffffffffffffff1673ffffffffffffffffffffffffffffffffffffffff168152602001908152602001600020600401600082815260200190815260200160002060009054906101000a900460ff168286836108f59190611813565b815181106109065761090561187b565b5b602002602001019060038111156109205761091f61119b565b5b908160038111156109345761093361119b565b5b815250508080610943906118aa565b915050610880565b50809450505050509392505050565b60008054906101000a900473ffffffffffffffffffffffffffffffffffffffff1681565b60015481565b60008054906101000a900473ffffffffffffffffffffffffffffffffffffffff1673ffffffffffffffffffffffffffffffffffffffff163373ffffffffffffffffffffffffffffffffffffffff16146109dc57600080fd5b600073ffffffffffffffffffffffffffffffffffffffff168573ffffffffffffffffffffffffffffffffffffffff1603610a4b576040517f08c379a0000000000000000000000000000000000000000000000000000000008152600401610a42906116f8565b60405180910390fd5b6000600260008773ffffffffffffffffffffffffffffffffffffffff1673ffffffffffffffffffffffffffffffffffffffff1681526020019081526020016000206002015414610ad0576040517f08c379a0000000000000000000000000000000000000000000000000000000008152600401610ac790611b74565b60405180910390fd5b6000600260008773ffffffffffffffffffffffffffffffffffffffff1673ffffffffffffffffffffffffffffffffffffffff168152602001908152602001600020905084816000019081610b249190611d40565b508381600101819055508281600201819055506305265c0082610b4791906117e2565b8160030181905550600081600401600084815260200190815260200160002060006101000a81548160ff02191690836003811115610b8857610b8761119b565b5b02179055508573ffffffffffffffffffffffffffffffffffffffff167f67b0e1fa0de7c987313896ded8ca57e01315314b590599dfc8c311ad9269651186868686604051610bd99493929190611660565b60405180910390a2505050505050565b60006305265c0083610bfb91906117e2565b9050600073ffffffffffffffffffffffffffffffffffffffff168473ffffffffffffffffffffffffffffffffffffffff1603610c6c576040517f08c379a0000000000000000000000000000000000000000000000000000000008152600401610c63906116f8565b60405180910390fd5b6000600260008673ffffffffffffffffffffffffffffffffffffffff1673ffffffffffffffffffffffffffffffffffffffff1681526020019081526020016000206002015403610cf1576040517f08c379a0000000000000000000000000000000000000000000000000000000008152600401610ce890611764565b60405180910390fd5b60006003811115610d0557610d0461119b565b5b6003811115610d1757610d1661119b565b5b600260008673ffffffffffffffffffffffffffffffffffffffff1673ffffffffffffffffffffffffffffffffffffffff168152602001908152602001600020600401600083815260200190815260200160002060009054906101000a900460ff166003811115610d8a57610d8961119b565b5b14610dca576040517f08c379a0000000000000000000000000000000000000000000000000000000008152600401610dc190611e5e565b60405180910390fd5b6201518042610dd991906117e2565b811115610e1b576040517f08c379a0000000000000000000000000000000000000000000000000000000008152600401610e129061199e565b60405180910390fd5b81600260008673ffffffffffffffffffffffffffffffffffffffff1673ffffffffffffffffffffffffffffffffffffffff168152602001908152602001600020600401600083815260200190815260200160002060006101000a81548160ff02191690836003811115610e9157610e9061119b565b5b0217905550600360008281526020019081526020016000206000836003811115610ebe57610ebd61119b565b5b6003811115610ed057610ecf61119b565b5b81526020019081526020016000206000815480929190610eef906118aa565b91905055508373ffffffffffffffffffffffffffffffffffffffff167fd099a2913db6f6e00adc1c04aa457cf9db4f9385bb5d50c7f4f6a77969c1a5458284604051610f3c929190611e8d565b60405180910390a250505050565b6003602052816000526040600020602052806000526040600020600091509150505481565b6002602052806000526040600020600091509050806000018054610f9290611921565b80601f0160208091040260200160405190810160405280929190818152602001828054610fbe90611921565b801561100b5780601f10610fe05761010080835404028352916020019161100b565b820191906000526020600020905b815481529060010190602001808311610fee57829003601f168201915b5050505050908060010154908060020154908060030154905084565b6000604051905090565b600080fd5b600080fd5b600073ffffffffffffffffffffffffffffffffffffffff82169050919050565b60006110668261103b565b9050919050565b6110768161105b565b811461108157600080fd5b50565b6000813590506110938161106d565b92915050565b6000602082840312156110af576110ae611031565b5b60006110bd84828501611084565b91505092915050565b600081519050919050565b600082825260208201905092915050565b60005b838110156111005780820151818401526020810190506110e5565b60008484015250505050565b6000601f19601f8301169050919050565b6000611128826110c6565b61113281856110d1565b93506111428185602086016110e2565b61114b8161110c565b840191505092915050565b6000819050919050565b61116981611156565b82525050565b600081519050919050565b600082825260208201905092915050565b6000819050602082019050919050565b7f4e487b7100000000000000000000000000000000000000000000000000000000600052602160045260246000fd5b600481106111db576111da61119b565b5b50565b60008190506111ec826111ca565b919050565b60006111fc826111de565b9050919050565b61120c816111f1565b82525050565b600061121e8383611203565b60208301905092915050565b6000602082019050919050565b60006112428261116f565b61124c818561117a565b93506112578361118b565b8060005b8381101561128857815161126f8882611212565b975061127a8361122a565b92505060018101905061125b565b5085935050505092915050565b600060a08201905081810360008301526112af818861111d565b90506112be6020830187611160565b6112cb6040830186611160565b6112d86060830185611160565b81810360808301526112ea8184611237565b90509695505050505050565b6112ff81611156565b811461130a57600080fd5b50565b60008135905061131c816112f6565b92915050565b6004811061132f57600080fd5b50565b60008135905061134181611322565b92915050565b6000806040838503121561135e5761135d611031565b5b600061136c8582860161130d565b925050602061137d85828601611332565b9150509250929050565b600060208201905061139c6000830184611160565b92915050565b6000806000606084860312156113bb576113ba611031565b5b60006113c986828701611084565b93505060206113da8682870161130d565b92505060406113eb8682870161130d565b9150509250925092565b6000602082019050818103600083015261140f8184611237565b905092915050565b6114208161105b565b82525050565b600060208201905061143b6000830184611417565b92915050565b600080fd5b600080fd5b7f4e487b7100000000000000000000000000000000000000000000000000000000600052604160045260246000fd5b6114838261110c565b810181811067ffffffffffffffff821117156114a2576114a161144b565b5b80604052505050565b60006114b5611027565b90506114c1828261147a565b919050565b600067ffffffffffffffff8211156114e1576114e061144b565b5b6114ea8261110c565b9050602081019050919050565b82818337600083830152505050565b6000611519611514846114c6565b6114ab565b90508281526020810184848401111561153557611534611446565b5b6115408482856114f7565b509392505050565b600082601f83011261155d5761155c611441565b5b813561156d848260208601611506565b91505092915050565b600080600080600060a0868803121561159257611591611031565b5b60006115a088828901611084565b955050602086013567ffffffffffffffff8111156115c1576115c0611036565b5b6115cd88828901611548565b94505060406115de8882890161130d565b93505060606115ef8882890161130d565b92505060806116008882890161130d565b9150509295509295909350565b60008060006060848603121561162657611625611031565b5b600061163486828701611084565b93505060206116458682870161130d565b925050604061165686828701611332565b9150509250925092565b6000608082019050818103600083015261167a818761111d565b90506116896020830186611160565b6116966040830185611160565b6116a36060830184611160565b95945050505050565b7f496e76616c696420656d706c6f79656520616464726573730000000000000000600082015250565b60006116e26018836110d1565b91506116ed826116ac565b602082019050919050565b60006020820190508181036000830152611711816116d5565b9050919050565b7f456d706c6f79656520646f6573206e6f74206578697374000000000000000000600082015250565b600061174e6017836110d1565b915061175982611718565b602082019050919050565b6000602082019050818103600083015261177d81611741565b9050919050565b7f4e487b7100000000000000000000000000000000000000000000000000000000600052601260045260246000fd5b7f4e487b7100000000000000000000000000000000000000000000000000000000600052601160045260246000fd5b60006117ed82611156565b91506117f883611156565b92508261180857611807611784565b5b828204905092915050565b600061181e82611156565b915061182983611156565b9250828203905081811115611841576118406117b3565b5b92915050565b600061185282611156565b915061185d83611156565b9250828201905080821115611875576118746117b3565b5b92915050565b7f4e487b7100000000000000000000000000000000000000000000000000000000600052603260045260246000fd5b60006118b582611156565b91507fffffffffffffffffffffffffffffffffffffffffffffffffffffffffffffffff82036118e7576118e66117b3565b5b600182019050919050565b7f4e487b7100000000000000000000000000000000000000000000000000000000600052602260045260246000fd5b6000600282049050600182168061193957607f821691505b60208210810361194c5761194b6118f2565b5b50919050565b7f496e76616c696420646179000000000000000000000000000000000000000000600082015250565b6000611988600b836110d1565b915061199382611952565b602082019050919050565b600060208201905081810360008301526119b78161197b565b9050919050565b7f537461727420646174652073686f756c64206265206265666f726520656e642060008201527f6461746500000000000000000000000000000000000000000000000000000000602082015250565b6000611a1a6024836110d1565b9150611a25826119be565b604082019050919050565b60006020820190508181036000830152611a4981611a0d565b9050919050565b7f496e76616c696420737461727420646174650000000000000000000000000000600082015250565b6000611a866012836110d1565b9150611a9182611a50565b602082019050919050565b60006020820190508181036000830152611ab581611a79565b9050919050565b7f496e76616c696420656e64206461746500000000000000000000000000000000600082015250565b6000611af26010836110d1565b9150611afd82611abc565b602082019050919050565b60006020820190508181036000830152611b2181611ae5565b9050919050565b7f456d706c6f79656520616c726561647920657869737473000000000000000000600082015250565b6000611b5e6017836110d1565b9150611b6982611b28565b602082019050919050565b60006020820190508181036000830152611b8d81611b51565b9050919050565b60008190508160005260206000209050919050565b60006020601f8301049050919050565b600082821b905092915050565b600060088302611bf67fffffffffffffffffffffffffffffffffffffffffffffffffffffffffffffffff82611bb9565b611c008683611bb9565b95508019841693508086168417925050509392505050565b6000819050919050565b6000611c3d611c38611c3384611156565b611c18565b611156565b9050919050565b6000819050919050565b611c5783611c22565b611c6b611c6382611c44565b848454611bc6565b825550505050565b600090565b611c80611c73565b611c8b818484611c4e565b505050565b5b81811015611caf57611ca4600082611c78565b600181019050611c91565b5050565b601f821115611cf457611cc581611b94565b611cce84611ba9565b81016020851015611cdd578190505b611cf1611ce985611ba9565b830182611c90565b50505b505050565b600082821c905092915050565b6000611d1760001984600802611cf9565b1980831691505092915050565b6000611d308383611d06565b9150826002028217905092915050565b611d49826110c6565b67ffffffffffffffff811115611d6257611d6161144b565b5b611d6c8254611921565b611d77828285611cb3565b600060209050601f831160018114611daa5760008415611d98578287015190505b611da28582611d24565b865550611e0a565b601f198416611db886611b94565b60005b82811015611de057848901518255600182019150602085019450602081019050611dbb565b86831015611dfd5784890151611df9601f891682611d06565b8355505b6001600288020188555050505b505050505050565b7f416c7265616479204d61726b6564000000000000000000000000000000000000600082015250565b6000611e48600e836110d1565b9150611e5382611e12565b602082019050919050565b60006020820190508181036000830152611e7781611e3b565b9050919050565b611e87816111f1565b82525050565b6000604082019050611ea26000830185611160565b611eaf6020830184611e7e565b939250505056fea2646970667358221220a566542cb1e12763d0407fb1305e83b8781100a98c6a63f99ca60ca493ec5b3664736f6c63430008120033",
  "immutableReferences": {},
  "source": "// SPDX-License-Identifier: MIT\npragma solidity ^0.8.0;\n\ncontract EmployeeManagementSystem {\n    address public owner;\n\n    enum Attendance {\n        NA,\n        Present,\n        Absent,\n        Leave\n    }\n    Attendance constant default_value = Attendance.NA;\n\n    uint256 public t = block.timestamp;\n    struct Employee {\n        string name;\n        uint256 age;\n        uint256 employeeNumber;\n        uint256 dateOfJoining;\n        mapping(uint256 => Attendance) attendance;\n    }\n\n    mapping(address => Employee) public employees;\n    mapping(uint256 => mapping(Attendance => uint256)) public dailyAttendance;\n\n    event EmployeeAdded(\n        address indexed employeeAddress,\n        string name,\n        uint256 age,\n        uint256 employeeNumber,\n        uint256 dateOfJoining\n    );\n    event EmployeeAttendanceUpdated(\n        address indexed employeeAddress,\n        uint256 date,\n        Attendance status\n    );\n\n    // Modifiers\n    modifier onlyOwner() {\n        require(msg.sender == owner);\n        _;\n    }\n\n    constructor() {\n        owner = msg.sender;\n    }\n\n    function addEmployee(\n        address _employeeAddress,\n        string memory _name,\n        uint256 _age,\n        uint256 _employeeNumber,\n        uint256 _dateOfJoining\n    ) public onlyOwner {\n        require(_employeeAddress != address(0), \"Invalid employee address\");\n        require(\n            employees[_employeeAddress].employeeNumber == 0,\n            \"Employee already exists\"\n        );\n\n        Employee storage _employee = employees[_employeeAddress];\n        _employee.name = _name;\n        _employee.age = _age;\n        _employee.employeeNumber = _employeeNumber;\n        _employee.dateOfJoining = _dateOfJoining / (1 days * 1000);\n        _employee.attendance[_dateOfJoining] = default_value;\n\n        emit EmployeeAdded(\n            _employeeAddress,\n            _name,\n            _age,\n            _employeeNumber,\n            _dateOfJoining\n        );\n    }\n\n    function updateAttendance(\n        address _employeeAddress,\n        uint256 _day,\n        Attendance _status\n    ) public {\n        uint256 day = _day / (1 days * 1000);\n\n        require(_employeeAddress != address(0), \"Invalid employee address\");\n        require(\n            employees[_employeeAddress].employeeNumber != 0,\n            \"Employee does not exist\"\n        );\n        require(\n            employees[_employeeAddress].attendance[day] == Attendance(0),\n            \"Already Marked\"\n        );\n\n        require(day <= (block.timestamp / 1 days), \"Invalid day\");\n\n        employees[_employeeAddress].attendance[day] = _status;\n        dailyAttendance[day][_status]++;\n\n        emit EmployeeAttendanceUpdated(_employeeAddress, day, _status);\n    }\n\n    function getEmployee(\n        address _employeeAddress\n    )\n        public\n        view\n        returns (string memory, uint256, uint256, uint256, Attendance[] memory)\n    {\n        require(_employeeAddress != address(0), \"Invalid employee address\");\n        require(\n            employees[_employeeAddress].employeeNumber != 0,\n            \"Employee does not exist\"\n        );\n\n        Employee storage employee = employees[_employeeAddress];\n        Attendance[] memory attendance = new Attendance[](\n            (block.timestamp / 1 days) - employee.dateOfJoining + 1\n        );\n\n        for (\n            uint256 i = employee.dateOfJoining;\n            i <= (block.timestamp / 1 days);\n            i++\n        ) {\n            attendance[i - employee.dateOfJoining] = employee.attendance[i];\n        }\n\n        return (\n            employee.name,\n            employee.age,\n            employee.employeeNumber,\n            employee.dateOfJoining,\n            attendance\n        );\n    }\n\n    function getDailyAttendance(\n        uint256 _day,\n        Attendance _status\n    ) public view returns (uint256) {\n        require(\n            (_day / (1 days * 1000)) <= (block.timestamp / 1 days),\n            \"Invalid day\"\n        );\n        return dailyAttendance[_day / (1 days * 1000)][_status];\n    }\n\n    function getAttendanceByDateRange(\n        address _employeeAddress,\n        uint256 _startDate,\n        uint256 _endDate\n    ) public view returns (Attendance[] memory) {\n        require(_employeeAddress != address(0), \"Invalid employee address\");\n        require(\n            employees[_employeeAddress].employeeNumber != 0,\n            \"Employee does not exist\"\n        );\n        require(_startDate <= _endDate, \"Start date should be before end date\");\n\n        uint256 startDate = _startDate / (1 days * 1000);\n        uint256 endDate = _endDate / (1 days * 1000);\n\n        require(\n            startDate >= employees[_employeeAddress].dateOfJoining,\n            \"Invalid start date\"\n        );\n        require(endDate <= (block.timestamp / 1 days), \"Invalid end date\");\n\n        uint256 numDays = endDate - startDate + 1;\n        Attendance[] memory attendance = new Attendance[](numDays);\n\n        for (uint256 i = startDate; i <= endDate; i++) {\n            attendance[i - startDate] = employees[_employeeAddress].attendance[\n                i\n            ];\n        }\n\n        return attendance;\n    }\n}\n",
  "sourcePath": "C:\\Users\\TR155VY\\Documents\\Keshav\\Programming\\Blockchain\\Fiverr\\Attendance\\contracts\\EmployeeManagementSystem.sol",
  "compiler": {
    "name": "solc",
    "version": "0.8.18+commit.87f61d96.Emscripten.clang"
  },
  "schemaVersion": "3.4.12",
  "updatedAt": "2023-03-02T13:46:29.232Z",
  "networkType": "ethereum",
  "devdoc": {
    "kind": "dev",
    "methods": {},
    "version": 1
  },
  "userdoc": {
    "kind": "user",
    "methods": {},
    "version": 1
  }
}